:020000040800F2
:1000000000000220718700084D7C0008597C000820
:10001000617C0008697C0008717C00080000000019
:10002000000000000000000000000000797C0008D3
:10003000857C000800000000917C00089D7C000881
:10004000C1870008C1870008C1870008C187000870
:10005000C1870008C1870008C1870008C187000860
:10006000C1870008C1870008C1870008C187000850
:10007000C1870008C1870008C1870008C187000840
:10008000C1870008C1870008C1870008C187000830
:10009000C1870008C1870008C1870008C187000820
:1000A000C1870008C1870008C1870008C187000810
:1000B000C1870008C1870008C1870008C187000800
:1000C000C1870008C1870008C1870008C1870008F0
:1000D000C1870008C1870008C1870008C1870008E0
:1000E000C1870008C1870008C1870008C1870008D0
:1000F000C1870008C1870008C1870008C1870008C0
:10010000C1870008C1870008C1870008C1870008AF
:10011000C1870008C1870008C1870008C18700089F
:10012000C1870008C1870008C1870008C18700088F
:10013000C1870008C1870008C1870008C18700087F
:10014000C1870008C1870008C1870008C18700086F
:10015000C1870008C1870008C1870008C18700085F
:10016000C1870008C1870008C1870008C18700084F
:10017000C1870008C1870008C1870008C18700083F
:08018000C1870008C1870008D7
:1001880010B5054C237833B9044B13B10448AFF3C9
:1001980000800123237010BD90080020000000009B
:1001A800B8F4000808B5064B1BB106480649AFF37A
:1001B80000800648036813B1054B03B1984708BD92
:1001C80000000000B8F40008940800208C08002003
:1001D8000000000070B44C1E4A2C2CD8DFE804F054
:1001E8003C3C3C3C2B2B2B2B26263C262626262625
:1001F800262626262626262B27272727272727278A
:100208003C26262626262B26273D3C2B3C27273D09
:100218002B2B26263C3C3C3C3C263C3C263C2B2BB2
:100228002626262B2B2B2626263C3C00CAB14469C1
:100238008569AC4202DB002070BC704704EB4405C2
:1002480006690134AD00446174190CD071556260BF
:10025800A360204670BC70471AB1002BE7D118463E
:10026800EAE71046E8E72046E6E700BF30B443690E
:100278008469A34209DA03EB430405690133A40046
:1002880043612B1901D001B112B9002030BC70476D
:100298000020285559609A60184630BC704700BF46
:1002A8002DE9F041C5680446884617462B780E4666
:1002B80017E0562B22D04B2B2DD1236B0135002F65
:1002C80003F10603E56023630CBF1B211E210022F6
:1002D80013462046FFF77EFF3060D0B1E5682B78E3
:1002E800061D722BE5D1236B0135002F03F109039D
:1002F800E56023630CBF19211C21E8E7236B013556
:10030800002F03F10903E56023630CBF1A211D21A7
:10031800DDE7BDE8F081BFB9462B15D1464513D0BE
:100328001D241E201C2108E01B2A10D0192A00D1E8
:10033800197003F10408464506D0D8F800301A7839
:100348001A2AF1D11C70F4E73046BDE8F081187024
:10035800EFE700BF10B4C4682378522B0A4610D0C8
:100368004F2B03D008465DF8044B7047036B0333EB
:10037800036320210134C46000235DF8044BFFF7B8
:1003880029BF036B023303631F21F3E72DE9F04113
:100398000F46C1680C782E2C80462AD00B462E2C8E
:1003A80017D15C78303CE4B2092C12D89C78A4F1BF
:1003B8003002D2B2092A03F1020018D8DD1C2B46FC
:1003C80001351C78A4F13006F6B2092EF7D92E2C87
:1003D800E7D05A1AC8F80C304046FFF747FF3A46AC
:1003E80003464B214046BDE8F041FFF7F3BE034604
:1003F800D5E74B78A3F16102D2B2192A0BD88A1C2F
:10040800134601321C78A4F16100C0B21928F7D94B
:100418005F2CF5D0C3E75F2BC0D1F0E72DE9F003DF
:10042800C2681378532B03D00020BDE8F00370474F
:10043800531CC3605378B3B1931CC36053785F2BCC
:1004480053D10021036A9942EED2836AC26901330B
:100458008362BDE8F00352F821007047A3F141021E
:10046800D2B2192A46D9826812076AD400296AD1F9
:100478003F4A02F1C40502E01C32AA42D4D01478E3
:100488009C42F9D15569002D6BD043698469D2F833
:100498001880A34263DA03EB4307D0F810C0BF000B
:1004A80001331CEB0706436160D04FF018090CF8C4
:1004B800079037467560C6F80880C76200294BD098
:1004C800D5681269016BA34211440163ACDA03EBEE
:1004D80043010469013389004361631844D018203B
:1004E800605418465D609A609FE7A3F13005EAB250
:1004F800092AB3D8002212E002EBC20103EB810300
:10050800A3F130018A428FD8C2681378541C1BB1FA
:10051800C46013785F2B12D0A3F130050A46E9B204
:10052800A3F141040929E4B2E6D9192C3FF67CAFBE
:1005380002EBC20103EB8103A3F13701E2E70131CA
:1005480080E7012194E7C26811784339C9B20129CB
:100558008CBF002101218BE755689268B2E700271C
:10056800ABE784694369A9E718465EE73746A4E71D
:1005780040E1000870B50D46D0F80011FF29044687
:1005880006D04A1CC4F80021655484F8045170BD93
:100598000026D0F80831D0F80C2180F8FF60984781
:1005A800D4F8203131465A1CC4F820210122C4F85D
:1005B8000021655484F8045170BD00BF70B402680E
:1005C80013786E2B05461AD00026A3F13002D2B25A
:1005D800092A19D82A680020013200EB80042A6011
:1005E80003EB440412F8013BA3F13001C9B2092915
:1005F800A4F13000F1D906B1404270BC7047531CD9
:10060800036053780126E0E70020F4E74369826934
:10061800934210B513DA03EB4302016992000133E8
:100628008C18436108D040238B540C30FFF7C6FF69
:1006380023466060184610BD2346184610BD0023A7
:10064800184610BD10B5C3681A785F2A04460BD047
:100658006E2A06D00C30FFF7B1FFE3681A785F2ADC
:1006680006D04FF0FF3010BD00200133E36010BD0D
:100678000130FAE738B5C3681A78542A044601D01D
:10068800002038BD0133C360FFF7DCFF051EF7DB30
:10069800A16A6369A26901319342A162F0DA03EBAE
:1006A800430221690133920063618B18E8D0052465
:1006B8008C545D60184638BD08B5C3681A785F2A3F
:1006C80001D0012008BD013340F80C3FFFF776FF49
:1006D800C043C00F08BD00BF70B504460C30FFF71B
:1006E8006DFF061E32DDE56863685B1B9E422FDCEA
:1006F800A268AB195207E36015D4092E0CDD284611
:100708001449082209F0B2FD30B92B7A2E2B10D0EB
:100718005F2B0ED0242B0CD0294632462046FFF7FB
:10072800A5FDE06270BDAA5D242A04BF0133E36021
:10073800E3E76B7A4E2BEFD1236B074916339E1BE9
:10074800266320461522FFF791FDEAE7002070BDD9
:100758000020E6E740EB00084CEB000838B50446FB
:1007680029B9C3681A7832B15A1CC2601978682945
:1007780012D0762901D0002038BD04F10C05284696
:10078800FFF71CFFE3681A785F2AF4D10133E360AE
:100798002846FFF713FF03E004F10C00FFF70EFFF4
:1007A800E3681A785F2AE6D10133E360012038BD97
:1007B800D0F810310246C3B15A680B68906870B11E
:1007C80002782F2A0DD1002B04DC09E002782F2AA9
:1007D80007D143B18068013B0028F7D170477047C3
:1007E80001D0002070474068704701211846C2F8C0
:1007F8001811704738B50C46054691B323784A2B33
:1008080027D8DFE803F02E26262626302E2B2B2687
:1008180026262626262626262626262626262E2668
:10082800262626262626262626262626262E262658
:10083800262626262626262E2B2626262626262643
:1008480026262626262E262626262E262E26262E20
:100858002E0028466168FFF7CDFF18B9A468002C60
:10086800CCD1002038BD2846211DFFF7A1FF002864
:10087800F7D003782F2BF4D138BD00BFF0B55368FB
:10088800946801330B44A34283B015460E460746CD
:1008980013D8EC680CB103B0F0BD95E809003246F6
:1008A8003946184406F004F895E80C003244D4544C
:1008B8006B681E446E6003B0F0BDD268002AEAD1AE
:1008C8001CB9022B4FF0020402D96400A342FCD8E1
:1008D8002868214609F0D8FD034610B12860AC60AD
:1008E800D7E72868019309F0D5F9019B2B6001220D
:1008F8006B60AB60EA60CEE72DE9F041C3681A7817
:100908004C2A054602D00020BDE8F0815A1CC2607E
:1009180059785F293AD05A290DD10132EA60284620
:10092800002100F0FDFDEA681378452BEBD1013278
:10093800EA60BDE8F08100F005FA07460028E2D039
:100948000378272B33D0E9680B786E2B28D04FF02B
:100958003B08452B34D0002BD5D04B1C01E0002C94
:10096800D1D0EB601E4613F8014B452CF7D1721A13
:100978002846FFF77BFC3A46034641462846FFF7E0
:1009880029FCEA681378452BBDD1D0E79A1CC260D0
:100998009B785A2BC1D0452B4FF00000B3D1C6E746
:1009A8004A1CEA604B784FF03C081146D1E743688F
:1009B8001A7C002AC7D05A682B6B9B1A2B63C2E794
:1009C8000022D5E7F0B5C168C76A0B78493BDBB2AE
:1009D800012B83B004461ED84A1CC2604B78452BB5
:1009E80045D002AE002146F8041D493B0F2B35D8EF
:1009F800DFE803F02F2F34143434343434343434EF
:100A0800343434080132E260204601F077FAE368B2
:100A18001A78452A27D0002003B0F0BD2046FFF7FA
:100A28006BFF054620462F212A460023002DF2D0D1
:100A3800FFF7D0FB306000F108060028EBD0E26831
:100A48001378452BD1D10198E7620132E26003B0F7
:100A5800F0BD2046FFF7B6FF0546E3E7204600F065
:100A680071F90546DEE70133E3600546DAE702314E
:100A78000022C16013462F2103B0BDE8F040FFF704
:100A8800A9BB00BF2DE9F041C26813784C3B82B086
:100A980005460E2B6DD8DFE803F02C6C316C6C6CBE
:100AA8006C176C2C6C6C6C6C080001320021C260F5
:100AB80000F036FDEB6819784529064600F0D1802C
:100AC800002002B0BDE8F0815378742B69D0002172
:100AD800FFF7A4FCEB681B78492B044650D1284645
:100AE800FFF770FF2246034604212846FFF772FBF2
:100AF80001E001F0C3F802B0BDE8F0810132C26044
:100B080001A90122FFF7CCFB07460028D8D02846C8
:100B18000021FFF71FFCEB681C7880460026002C9C
:100B280000F08E80442C00F08280A4F13002D2B212
:100B3800092A5CD9A4F16102D2B2192A57D9432CE7
:100B480055D0552C53D04C2C51D0532C00F08480C8
:100B5800492C7AD0542C00F0B380452C00F0D88072
:100B68004D2C6DD1002E6BD05A1CEA605C78134670
:100B7800D5E701F083F8EB681B78492B044603D0CE
:100B8800204602B0BDE8F081002899D02B6A6A6A35
:100B9800934295DAEA69591C42F8230028462962EB
:100BA8009EE702326549C2600322FFF75FFB0446F5
:100BB800284601F063F82246034601212846FFF73C
:100BC80009FB2A6BEB6803322A631B78492B04461E
:100BD800D6D100283FF474AF2B6A6A6A9342BFF6F5
:100BE8006FAFEA69591C42F82300296277E7284663
:100BF80001F044F8CEB10121324603462846FFF7FA
:100C0800E9FA0646EB68532C1C7888D0452C8CD022
:100C1800B6B12B6A6A6A934212DAEA6942F823602B
:100C28005A1CEB682A621C7879E70646EAE75B7883
:100C380003F0DF03542BDAD1284600F083F8D9E714
:100C48000020386002B0BDE8F081002EF8D02846B8
:100C5800FFF7B8FE0421CFE728460121FFF7DEFBA6
:100C6800C8E75A1CEA605A78732A3DD0642A2BD008
:100C78004FF0FF372846FFF705FF044620B10378F9
:100C8800442B01D0462B29D17B1C25D06B69AA693E
:100C9800934213DA03EB43022969013392006B6133
:100CA8008B1803D0452088549F605C6028463246E4
:100CB8000221FFF78FFA02B0BDE8F0810023F5E7C3
:100CC8002846FFF7D7FC95E70233EB602846FFF785
:100CD800B9FC071ECEDAF3E62346E7E72846FFF716
:100CE800EBFC0028D0D1EBE60233EB602846FFF797
:100CF800E3FC00283FF4E4AE284611490E22FFF732
:100D0800B5FA3246034602212846FFF763FAF2E6AF
:100D18003E60002E3FF4D4AEB8F1000F04D0019B22
:100D2800C8F80430CDF80480EB681A78452A7FF4B7
:100D3800C7AE0133EB600198DDE600BF74EB000835
:100D480064EB0008F0B5C2681378722B83B00446D0
:100D580054D0562B52D04B2B50D0A3F130014A29F6
:100D68007ED8DFE811F0A300A300A300A300A3002E
:100D7800A300A300A300A300A3007D007D007D00C5
:100D88007D007D007D007D00A8007D00D20002016D
:100D98007D00DF00F5007D007D007D007D007D0089
:100DA8007501A300C601AC017D00B901D301F601AC
:100DB8000E027D007D007D007D00A3007D007D008A
:100DC8007D007D007D007D001F021F021F021F02A3
:100DD8001F021F021F021F021F021F027D001F02A7
:100DE8001F021F021F027D007D007D001F021F02DF
:100DF8008A001F021F021F021F021F02204601A9AC
:100E08000022FFF74DFA054650B32046FFF79AFF38
:100E1800286028B302781F3AD2B2012A23D9019A4E
:100E2800F2B1236A616A8B421ADAE16941F8232038
:100E380001985D1C256203B0F0BD204601F05EF804
:100E48004121024600232046FFF7C4F9019038B13A
:100E5800E3681A7822B15A1CE2601B78452B1AD035
:100E6800002003B0F0BD019A416842602B680193ED
:100E78002960019A002AD4D1F2E70132E2602046C3
:100E8800FFF72AFC2821024600232046FFF7A2F993
:100E980001900028E4D0236A626A9342E0DAE269AA
:100EA800591C42F8230001982162DAE72046FFF72F
:100EB800E9FD0190EDE7511CE16053785F2B00F0EC
:100EC8008082303BDBB2092B00F284820A46013271
:100ED800E2601378303BDBB2092BF8D9521A20466E
:100EE800FFF7C4F90546002830D0E1680B785F2B7E
:100EF8002CD10131E1602046FFF724FF2A46034642
:100F08002A212046FFF766F9D3E70132E26020463E
:100F1800FFF718FF2521024600232046FFF75AF95C
:100F28000190B6E7531CE3605378592B04BF023293
:100F3800E2600121204600F0D5FA01462046FFF77D
:100F480009FAE3681A78452A00F041820020B0E7E0
:100F58000132E2602046FFF7F5FE26210246002313
:100F68002046FFF737F9019093E7531CE360537865
:100F7800002B3FF475AF931CE3605378463B302B4E
:100F88003FF66EAF01A151F823F000BFB31200087D
:100F9800690E0008690E0008690E0008690E00084D
:100FA800690E0008690E0008690E0008690E00083D
:100FB800690E0008690E0008690E0008690E00082D
:100FC800690E0008430E0008690E0008690E000843
:100FD800690E0008690E0008690E0008690E00080D
:100FE800690E0008690E0008690E0008690E0008FD
:100FF800690E0008690E0008A7120008690E0008AB
:10100800690E00087F120008571200082F12000806
:10101800690E000807120008D7110008690E0008B9
:10102800690E0008690E0008690E00088D13000893
:10103800690E000877130008690E0008690E000899
:1010480053130008430E0008690E00081B1300081C
:101058000132E2602046FFF775FE01AE07463146D1
:1010680020460122FFF71CF9054600283FF46EAF21
:101078002046FFF767FE286000283FF467AFB542B7
:1010880016D00178A1F11F02D2B2012A40F2AA813A
:1010980029290DD0019A002A3FF458AF236A616AC2
:1010A8008B42BFF653AFE169581C41F823202062F8
:1010B8003A4620462B21019BFFF78CF8F9E60132CE
:1010C800E2602046FFF73EFE22210246002320462A
:1010D800FFF780F80190DCE60132E2602046FFF776
:1010E80031FE2321024600232046FFF773F80190C2
:1010F800CFE60132E2602046FFF724FE24210246B3
:1011080000232046FFF766F80190C2E65378A3F162
:101118003002D2B2092A06D95F2B04D0413BDBB298
:10112800192B00F2678120460021FFF777F9E36861
:1011380001901B78492B05467FF493AE2046FFF7B4
:1011480041FC2A46034604212046FFF743F8019054
:101158009FE62046FFF78EFAE36801901B78492B3B
:101168007FF497AE00283FF47BAE236A626A93420D
:10117800BFF676AEE269591C42F82300019D216250
:10118800DCE70132E2602046FFF7A6FA019020462C
:10119800FFF7D8FD21210246019B2046FFF71AF8E8
:1011A800019076E66169A069A34D613B03EB830377
:1011B800814205EB8303C0F2F780002318465B6881
:1011C8005968236B01320B44E260236349E6636983
:1011D800A269934280F2F78003EB430221699200EF
:1011E80001338818636100F02281944D27238B54C2
:1011F8002B4645605A68236B1344236331E66369C1
:10120800A269934280F2DF8003EB430221699200D6
:1012180001338818636100F00A81894D27238B54B4
:101228002B464560E6E76369A269934280F2CB806A
:1012380003EB43022169920001338818636100F0CF
:10124800F680804D27238B542B464560D2E763698F
:10125800A269934280F2B78003EB430221699200AE
:1012680001338818636100F0E280774D27238B549F
:101278002B464560BEE76369A269934280F2A3806A
:1012880003EB43022169920001338818636100F07F
:10129800CE806E4D27238B542B464560AAE7204607
:1012A8006B490422FEF7E2FFDBE56369A1698B4223
:1012B80080F2AC80216903EB4305013301EB85051E
:1012C80063612C2301952B709378303BDBB2092B9B
:1012D8008CBF002301232B81002B40F099802046EE
:1012E800FFF730FD6860019B5B68002B3FF4B8ADE9
:1012F80004F10C00FFF762F9E3681A7832B15A1C5E
:10130800E2601A78B2F173035A425A410198428155
:10131800A7E593785F2B00F081802046FFF776F9E8
:101328000546002D00F08180E3681A785F2A7FF473
:101338000DAE0133E3602046FFF704FD2A4603465D
:101348002D212046FEF746FFB3E56369A269934263
:1013580039DA03EB4302216992000133881863618B
:1013680065D03C4D27238B542B46456042E72046E9
:10137800FFF7E8FC4921024600232046FEF72AFF32
:10138800019086E56369A26993421CDA03EB430284
:101398002169920001338818636148D02E4D2723B4
:1013A8008B542B46456025E701EB41002569013147
:1013B8008000616129183CD027262E5408464B60CE
:1013C800FEE6002595E5002318465B6812E7013321
:1013D800E3606EE5204600F091FD054600287FF4A5
:1013E80084ADB3E50199426841602B680193117897
:1013F8002A604DE62046FFF745FB019000283FF4A0
:101408002FAD0378182B7FF446AD2AE5002558E761
:1014180004F10C00FFF7D2F8019D60E70332E260A7
:10142800204600F06BFD05467BE7284641E543680A
:10143800E0E64B680846C3E604E2000870E40008EA
:1014480048E400080CE4000834E4000820E400083C
:1014580078EB00085CE4000884E4000870B582B00A
:101468000023C16801930B7804464BB3452B27D062
:101478002E2B25D001AE17E04F2B17D02046FFF7B3
:1014880061FC05462E2120462A460023C5B1FEF7F9
:10149800A1FE3060A0B1E1680B7800F1080643B105
:1014A800452B06D02E2B04D0522BE5D14B78452B5B
:1014B800E4D1019B23B19A682AB1184602B070BDE5
:1014C800002002B070BD596808782728F5D149680E
:1014D800087C0928F1D14868216B091A216318464C
:1014E8005A60EBE770B5C3681A784A2A04460DD0EB
:1014F80071B90D462046FFF7B1FF034670B120468B
:101508002A462921BDE87040FEF764BE0133C36056
:101518002046FFF717FC05460028EBD1002070BDD8
:101528002DE9F047C3681A78472A05460E4635D094
:10153800542A33D0FFF7A6FA044660B316B1AB6855
:10154800DB071FD5EB681B782BB3452B23D021462F
:101558000B78042BA3F11C0200F0A680C0F0A28037
:10156800042A00F29F8049680029F1D12846FFF734
:10157800B9FF2246034603212846BDE8F047FEF797
:1015880029BE64682378A3F11C02D2B2042AF8D9D0
:10159800022B00F06F812046BDE8F087296B01F12E
:1015A80014022A631A78542A05D0472A00F0EE80DC
:1015B8000020BDE8F0875A1CEA605A78002AF7D064
:1015C8009A1CEA605B78433B332BF1D801A252F8AE
:1015D80023F000BFE51A0008B9150008B91500087E
:1015E800CF1A0008B9150008B91A0008A31A00088C
:1015F8008D1A0008B9150008B9150008B9150008B2
:10160800B9150008B9150008B9150008B91500087A
:10161800B9150008771A00085D1A0008B9150008FE
:10162800431A0008071A0008B9150008B915000878
:10163800B9150008B9150008B9150008B91500084A
:10164800B9150008B9150008B9150008B91500083A
:10165800B9150008D3190008B9150008B91500080C
:10166800B9150008B91500081D1A0008B9150008B1
:10167800B9150008B9150008B9150008B91500080A
:10168800B9150008B9150008B9150008B9150008FA
:10169800B9150008B9150008B9150008B9150008EA
:1016A800AD190008002161E74B68002B00F0F280BB
:1016B8001A78013A322A00F2ED8001A151F822F09D
:1016C80095180008951800089D1800089D1800082E
:1016D8009D1800089D180008AD160008AD160008F2
:1016E8009D1800089D1800089D1800089D180008FE
:1016F8009D1800089D1800089D1800089D180008EE
:101708009D1800089D1800089D1800089D180008DD
:101718009D1800089D1800089D1800089D180008CD
:101728009D1800089D1800089D1800089D180008BD
:101738009D1800089D1800089D1800089D180008AD
:101748009D1800089D1800089D1800089D1800089D
:101758009D1800089D1800089D1800089D1800088D
:101768009D1800089D1800089D1800089D1800087D
:101778009D1800089D1800089D1800089D1800086D
:101788009D1800089D180008AD1600085A1CEA604C
:101798005A78002A3FF40CAF9A1CEA605A78413A0A
:1017A800312A3FF605AF01A151F822F06919000866
:1017B800B9150008B9150008B9150008B9150008C9
:1017C800B9150008B9150008B9150008B9150008B9
:1017D800B9150008B9150008B9150008B9150008A9
:1017E800B9150008B9150008B9150008B915000899
:1017F8004B190008B915000881190008B915000827
:1018080035190008B9150008B9150008B9150008F8
:10181800B9150008B9150008B9150008B915000868
:10182800B9150008B9150008B9150008B915000858
:10183800B9150008B9150008B9150008B915000848
:10184800B9150008B9150008B9150008B915000838
:10185800B9150008B9150008B9150008B915000828
:10186800B9150008B9150008B9150008B915000818
:10187800A1180008A36800E05B681A781C3AD2B285
:10188800042AF9D9A3602046BDE8F0879B68002B9D
:101898007FF40EAF012169E605F10C00FEF78EFE1C
:1018A80001287FF785AEEB681A78002A3FF480AEEE
:1018B8005E1CEE601B785F2B7FF47AAE471E4FF0FC
:1018C80000084FF03F093378002B3FF471AE242B0A
:1018D80000F024810024335D23B1242B02D001348D
:1018E800BC42F8DB314628462246FEF7BFFCEE68CC
:1018F80026443F1BEE6000283FF45AAEB8F1000FB3
:1019080000F02981424603463E212846FEF762FC44
:10191800804600283FF44CAE002FD4DC28464246CF
:101928003D210023BDE8F047FEF754BC2846FFF7E9
:10193800A9F81321024600232846BDE8F047FEF720
:1019480049BC2846FFF79EF804462846FEF75EFE87
:101958002246034616212846BDE8F047FEF73ABC62
:1019680028460021FFF7DCFD172102460023284600
:10197800BDE8F047FEF72EBC9A7828460021002AD9
:1019880000F0EB80DA1CEA609B786E2B40F0E58073
:10199800FFF7C6FD4821024600232846BDE8F04768
:1019A800FEF718BC28467621FEF7D8FE00283FF43B
:1019B800FFAD28460021FFF7B3FD102102460023A2
:1019C8002846BDE8F047FEF705BC28460021FEF78B
:1019D800C5FE00283FF4ECAD28460021FEF7BEFE08
:1019E80000283FF4E5AD28460021FFF799FD1121B5
:1019F800024600232846BDE8F047FEF7EBBB284621
:101A0800FFF740F81521024600232846BDE8F047B5
:101A1800FEF7E0BB28466821FEF7A0FE00283FF449
:101A2800C7AD28460021FFF77BFD0F2102460023A2
:101A38002846BDE8F047FEF7CDBB0F31296328469D
:101A4800FFF780F90921024600232846BDE8F04740
:101A5800FEF7C0BB0A3129632846FFF773F90A214C
:101A6800024600232846BDE8F047FEF7B3BB2846E8
:101A7800FFF768F90D21024600232846BDE8F04724
:101A8800FEF7A8BB2846FFF75DF91221024600239E
:101A98002846BDE8F047FEF79DBB2846FFF752F9F8
:101AA8000C21024600232846BDE8F047FEF792BB0A
:101AB8002846FEF7E7FF1421024600232846BDE822
:101AC800F047FEF787BB2846FFF73CF90E21024690
:101AD80000232846BDE8F047FEF77CBB2846FFF701
:101AE80031F9044605F10C00FEF768FD0028FFF601
:101AF8005FADEA6811785F297FF45AAD0132EA6078
:101B08002846FFF71FF92B6B591D29630246234608
:101B180028460B21BDE8F047FEF75CBB7378532BD2
:101B280027D05F2B23D0242B7FF442AD1C466B6952
:101B3800AA6993421FDA2A69581C03EB43016861BA
:101B480012EB810017D002F821904460EE6802364B
:101B5800023FEE60D2E68046DEE6FFF7E1FC472171
:101B6800024600232846BDE8F047FEF733BB2E2483
:101B7800DDE72F24DBE7EB680233EB6018E500BFF5
:101B88002DE9F041C3681F7880465FB35A1CC260D4
:101B980058781F7818B19A1CC8F80C205878762FF6
:101BA80041D1A0F13004E3B2092B1CD84046FEF71E
:101BB80093FDD8F81430D8F81820934201462FDA4C
:101BC80003EB4302D8F8100001339200C8F8143030
:101BD800831825D021B3322585545C609960184656
:101BE800BDE8F0813846244E3D24002304E0BA4283
:101BF80013D90C46A34213D0E21A02EBD27203EBBC
:101C080062010A0106EB020CB5582A789742EED118
:101C18006A78904216D08242EBD84B1CA342EBD193
:101C28000020BDE8F081632FDDD17628DBD1404666
:101C3800FFF788F83321024600234046BDE8F0410B
:101C4800FEF7C8BAD8F81430D8F818209342E7DA63
:101C580003EB4302D8F8101001339200C8F814308F
:101C68008B1806D031208854C3F804C01846BDE844
:101C7800F0811846BDE8F08198E40008F8B5C2681C
:101C88001378A3F13001C9B20929044630D9A3F168
:101C98006101C9B2192934D9A3F14301C9B2012993
:101CA80071D94C2B00F08780552B40F08F805378EA
:101CB8006C2B30D0742B40F08980531CC360517852
:101CC800742900F0C38042294FF0000517D1013371
:101CD800E3602046FEF700FD2A4603464A212046D7
:101CE800FEF778FAE3681A78422A0546EFD006E04C
:101CF800FEF7F2FCE368197805464229E7D0284642
:101D0800F8BDFFF73DFF054610B10378312B5FD0D2
:101D1800E3681978F1E7531CC36051786C29D2D174
:101D28000232C260FFF79AFBE3680646002800F01B
:101D3800E08019784529C6D10133E3602046FEF7D3
:101D480081FC0028C0F29C806369A269934280F2FA
:101D5800978003EB43022169920001338D18636178
:101D680000F08E8044238B546E60A860236A626AF8
:101D7800934280F28580E26942F823505A1CE36856
:101D880022621978B9E7C06A00283CD00178002996
:101D980037D1216B83680B4423631178432978D0AA
:101DA800442973D15378303B052B4DD8DFE803F035
:101DB800482D464C4C4A0132C260FEF78DFC054660
:101DC80020B12046FEF778FC0028A1D10020F8BDFC
:101DD8004368226B9E681868474932440732226379
:101DE80004F000FE002893D12046FEF775FC2A4631
:101DF800034635212046FEF7EDF9E36805461978D4
:101E08007BE71829C5D01946C8E702276169A56983
:101E1800931CA942E36037DA01EB410526690131D9
:101E2800AD00616171192FD070B34FF0080C06F83E
:101E380005C00D460F71886091785EE70327E5E7D6
:101E48000127E3E70427E1E7002558E70232C260EB
:101E5800FEF7F8FB002813DB6369A26993420FDAE7
:101E680003EB43022169920001338D18636107D0A7
:101E780046238B546860236A626A9342FFF67BAFFD
:101E8800E3680025197838E70025D5E713460025CB
:101E980033E75378313B042BD6D801A151F823F00E
:101EA800EF1E0008BD1E0008F71E0008511E00089E
:101EB800F31E000802276169A569931CA942E36023
:101EC800E2DA01EB410526690131AD006161711962
:101ED800DAD00028D8D04FF0070C06F805C00D4618
:101EE8000F718860A8E70127E5E70427E3E70327E0
:101EF800E1E70546197800E780EB00082DE9F04195
:101F0800C1680B784C2B044600F09F80542B00F0DE
:101F1800A080732B58D0662B2ED0A3F13002D2B2FA
:101F2800092A0DD82046FFF7A9FE0546002800F02B
:101F38008380E3681B78492B00F0A380BDE8F0811B
:101F48006F2B7CD0692B00F0A780742B17D14B78AE
:101F58006C2B14D1FEF7F6FEE16805460231E1600C
:101F68002046452100F0ACF92A4603463021204698
:101F7800BDE8F041FEF72EB94B78702B40D02046D3
:101F8800FFF7FEFD0546002856D00678312E64D0AE
:101F9800322E2BD0332E4FD10027E3681A785F2AD0
:101FA80000F00D812046FFF7A9FF03462FB11A461E
:101FB80020463721FEF70EF9034620462A463521EA
:101FC800BDE8F041FEF706B94B78722B00F0DE80D1
:101FD800702BD4D10231C160FFF790FF492102462E
:101FE80000232046BDE8F041FEF7F4B84368002717
:101FF800032B21D8DFE813F0560041019A005E0058
:102008008B1CC3608B78542B00F0D580FEF71AFB2D
:10201800451C11D06369A26993420DDA03EB4302B0
:1020280021690133920063618B1805D0062088541A
:102038005D601846BDE8F0810020BDE8F0814B786E
:102048006E2B9CD10231C1606CE7BDE8F041FEF710
:1020580053BCBDE8F041FEF70DBBD0F80480236BFC
:10206800D8F80820D8F800709049023A134423633E
:10207800384604F0B7FC002800F0A980D8F80C30E6
:10208800B6E72046FEF79EFC2A4603460421204672
:10209800BDE8F041FEF79EB84B786C2B7FF46FAF2C
:1020A80000255BE720462A4634210023BDE8F0419D
:1020B800FEF790B838467E4904F094FC002800F0FA
:1020C8008A803B786E2BB7D17B78772B01D0612B38
:1020D800B2D15F21204600F0F3F806462046FEF70D
:1020E80031FEE1680B78452B074600F0AB80702B7A
:1020F80000F0B780692B9FD14B786C2B9CD1204680
:10210800FFF7FCFE03463A4620463A21FEF762F8FE
:102118003246034639212046FEF75CF82A46034634
:1021280038212046BDE8F041FEF754B86B681B68BB
:102138005A78632A62D02046FFF7E0FE8046384688
:102148005C4904F04FFC002852D038465A4904F044
:1021580049FC28B13846594904F044FC00286CD1A0
:102168002046FFF78BFDE3681B78492B06466DD0A8
:102178004246334620463721FEF72CF82A460346C6
:1021880036212046BDE8F041FEF724B80231C1608F
:10219800FEF7D8FD05462046FFF770FDE16809788F
:1021A80049290646204638D02A4633460121BDE84B
:1021B800F041FEF70FB80331C16000252AE701336B
:1021C800E3602046452100F07BF80346EEE6204612
:1021D800FEF7B8FDF0E62046FFF790FE06462046DB
:1021E800FFF78CFE07462046FFF788FE03468AE77E
:1021F8002046452100F064F80646B9E71B78A3F1AC
:102208006302D2B2012A03D9723BDBB2012B92D806
:102218002046FEF797FD804691E7FEF7D3FB32464E
:10222800034604212046FDF7D5FF2A46034601212F
:102238002046BDE8F041FDF7CDBF2046FFF75EFE22
:10224800064695E70131E16000235CE72046FEF78A
:10225800B9FB3246034604212046FDF7BBFF06467C
:1022680086E74B78692B7FF4E7AE0231E1602046C0
:10227800452100F025F8034645E72FB13B78702B40
:1022880006D06D2B04D00027332E7FF48BAE84E666
:102298007A789A42F7D1E3681A785F2A01D0012741
:1022A800F2E70133E3600027EEE700BF2CF00008F7
:1022B80090EB000884EB000888EB00088CEB000822
:1022C800F0B5C3680F46197883B00022B9420446B6
:1022D800019218BF01AE0AD11BE0FDF77BFF306009
:1022E80000F1080668B1E3681A78BA420CD02046B3
:1022F800FFF704FE05462E2120462A460023002D1E
:10230800EBD1002003B0F0BD01980133E36003B0C6
:10231800F0BD0133C3602E21134603B0BDE8F04081
:10232800FDF758BF2DE9F041044608460D4608F070
:102338001BFB48B3D4F800112F184FF0000809E030
:102348000B46BD4201F10101C4F80011E65484F8BE
:10235800046119D0FF2915F8016BF1D1D4F80831BF
:1023680084F8FF80D4F80C2120469847D4F820310F
:102378000133C4F8203100230121BD42C4F8001103
:10238800E65484F80461E5D1BDE8F0812DE9F04F09
:10239800137897B0154604460E464B2B01F29281EE
:1023A800DFE813F08B04AB03AB031F03FB04E30468
:1023B80064051A030803E102BA0293026C022F02B1
:1023C8000802E101BA0193016C0145011E01F70001
:1023D800D000A90081006B006B006B004C004C0022
:1023E8004C004C004C004C004C00F308F3084C0027
:1023F8004C00C5081509B90746072907E606290745
:10240800B206B2066B091B0944099E085E054A0517
:102418003E05390579067406740635063506FD0548
:10242800F205E405B3058C057708290850089009DA
:10243800CE07F40764040F04D803B804D4F81421B1
:1024480016AB002143F8402DD4F810210795C4F8A5
:102458001431089109926A682046314602F03AFA26
:10246800089B23B931462A46204602F03FFA069BCC
:10247800C4F8143117B0BDE8F08FD0F814713A469B
:10248800002FDDD0916849B951680978A1F1190088
:10249800C0B2022805D88B4201F056851268002A7E
:1024A800F0D13A46CCE79768D2F80490002FE1D0F3
:1024B8000025D0F80011A84609E00B460131013586
:1024C800AF42C4F80011E65484F80461D2D0FF2961
:1024D80019F80560F1D1D4F8083184F8FF80D4F8F0
:1024E8000C2120469847D4F820310133C4F8203114
:1024F80001210023E3E7D64FD0F8001107F1110AB4
:102508004FF000090AE00B4601315745C4F80011A5
:1025180004F8038084F8048101F00E82FF2917F87B
:10252800018FF0D1D4F8083184F8FF90D4F80C2149
:1025380020469847D4F820310133C4F820310121CE
:102548000023E2E7C34FD0F8001107F1150A4FF056
:1025580000090AE00B4601315745C4F8001104F898
:10256800038084F8048101F0F180FF2917F8018FB6
:10257800F0D1D4F8083184F8FF90D4F80C21204623
:102588009847D4F820310133C4F8203101210023C1
:10259800E2E7B14FD0F8001107F1190A4FF000092E
:1025A8000AE00B4601315745C4F8001104F80380CE
:1025B80084F8048101F0B980FF2917F8018FF0D160
:1025C800D4F8083184F8FF90D4F80C2120469847B5
:1025D800D4F820310133C4F8203101210023E2E787
:1025E8009E4FD0F8001107F1160A4FF000090AE0D3
:1025F8000B4601315745C4F8001104F8038084F8EC
:10260800048101F0DC80FF2917F8018FF0D1D4F89C
:10261800083184F8FF90D4F80C2120469847D4F864
:1026280020310133C4F8203101210023E2E78C4F27
:10263800D0F8001107F1130A4FF000090AE00B4621
:1026480001315745C4F8001104F8038084F8048167
:1026580001F0AE80FF2917F8018FF0D1D4F80831C6
:1026680084F8FF90D4F80C2120469847D4F82031FC
:102678000133C4F8203101210023E2E7794FD0F873
:10268800001107F10F0A4FF000090AE00B4601316B
:102698005745C4F8001104F8038084F8048101F058
:1026A8009580FF2917F8018FF0D1D4F8083184F804
:1026B800FF90D4F80C2120469847D4F820310133F4
:1026C800C4F8203101210023E2E7674FD0F8001158
:1026D80007F11A0A4FF000090AE00B460131574585
:1026E800C4F8001104F8038084F8048101F016800E
:1026F800FF2917F8018FF0D1D4F8083184F8FF903A
:10270800D4F80C2120469847D4F820310133C4F876
:10271800203101210023E2E7544FD0F8001107F1DE
:10272800110A4FF000090AE00B4601315745C4F879
:10273800001104F8038084F8048101F0AA80FF29BD
:1027480017F8018FF0D1D4F8083184F8FF90D4F845
:102758000C2120469847D4F820310133C4F82031A1
:1027680001210023E2E7424FD0F8001107F1150AD2
:102778004FF000090AE00B4601315745C4F8001133
:1027880004F8038084F8048101F07C80FF2917F89D
:10279800018FF0D1D4F8083184F8FF90D4F80C21D7
:1027A80020469847D4F820310133C4F8203101215C
:1027B8000023E2E72F4FD0F8001107F1100A4FF07D
:1027C80000090AE00B4601315745C4F8001104F826
:1027D800038084F8048101F04E80FF2917F8018FE7
:1027E800F0D1D4F8083184F8FF90D4F80C212046B1
:1027F8009847D4F820310133C4F82031012100234F
:10280800E2E71D4FD0F8001107F1120A4FF0000956
:102818000AE00B4601315745C4F8001104F803805B
:1028280084F8048101F02080FF2917F8018FF0D186
:10283800D4F8083184F8FF90D4F80C212046984742
:10284800D4F820310133C4F8203101210023E2E714
:10285800DBEC0008C3EC0008A7EC00088FEC0008CC
:102868007BEC00086BEC00084FEC00083BEC000820
:1028780037EC000823EC00080FEC0008BB4FD0F839
:10288800001107F10D0A4FF000090AE00B4601316B
:102898005745C4F8001104F8038084F8048100F057
:1028A800D587FF2917F8018FF0D1D4F8083184F8BB
:1028B800FF90D4F80C2120469847D4F820310133F2
:1028C800C4F8203101210023E2E7A94FD0F8001114
:1028D80007F1180A4FF000090AE00B460131574585
:1028E800C4F8001104F8038084F8048100F0838799
:1028F800FF2917F8018FF0D1D4F8083184F8FF9038
:10290800D4F80C2120469847D4F820310133C4F874
:10291800203101210023E2E7964FD0F8001107F19A
:10292800080A4FF000090AE00B4601315745C4F880
:10293800001104F8038084F8048100F05587FF290A
:1029480017F8018FF0D1D4F8083184F8FF90D4F843
:102958000C2120469847D4F820310133C4F820319F
:1029680001210023E2E7844FD0F8001107F10B0A98
:102978004FF000090AE00B4601315745C4F8001131
:1029880004F8038084F8048100F02787FF2917F8EA
:10299800018FF0D1D4F8083184F8FF90D4F80C21D5
:1029A80020469847D4F820310133C4F8203101215A
:1029B8000023E2E7D0F80011FF2901F0CC824A1C7D
:1029C8007E23C4F80021635484F804313146AA6890
:1029D800204601F07FFF4DE53146926801F07AFF0D
:1029E80048E50022D0F81431C0F814216F6802932A
:1029F800002F01F00B8506A9D0F810A1019190468F
:102A080094460B4639781A60A1F11C00C0B204281C
:102A1800C4F814315F60C3F808C0C3F80CA01A46A4
:102A280008F1010803F1100340F25186042901F06E
:102A38003C8602293FD1D7F808B09BF80030452BD7
:102A480008BFDBF804B09BF800301C3BDBB2042B5A
:102A580031D8B8F1040F01F08486019A234602EBBD
:102A6800081C294632465D46564664468B469246C1
:102A7800994603E0B8F1040F01F072861CE90F00D3
:102A880084E80F00A4F11003236000230CE9480038
:102A9800C9F814414CF80C5C6D682B781C3BDBB210
:102AA800042B08F101080CF1100C04F11004E1D911
:102AB8004C4656465D46AA682046314601F00AFF54
:102AC8003B78042B04BF049BC4F81031B8F1000F05
:102AD8000FD0019A474602EB08154FF02009B0467F
:102AE80055F8086C013F002E01F07C84103D002F42
:102AF800F6D10299C4F81411BCE43146526801F0C9
:102B0800E9FE16F0040940F0EF851C4FD4F80011D7
:102B180007F1020A0AE00B4601315745C4F80011D3
:102B280004F8038084F8048100F0EA85FF2917F887
:102B3800018FF0D1D4F8083184F8FF90D4F80C2133
:102B480020469847D4F820310133C4F820310121B8
:102B58000023E2E70A4F5268314601F0BBFE07F155
:102B6800050AD4F800114FF0000916E0FFEB000841
:102B7800DBEB0008CFEB0008C3EB00089BEB000879
:102B880093EB00080B4601315745C4F8001104F8CF
:102B9800038084F8048100F0AB87FF2917F8018FC0
:102BA800F0D1D4F8083184F8FF90D4F80C212046ED
:102BB8009847D4F820310133C4F82031012100238B
:102BC800E2E75168FDF716FE002801F076854FF020
:102BD800000803782F2B40F0CF874368002B00F0C4
:102BE800CB87806808F101080028F2D16D6801954B
:102BF800002708F1FF33DFF8D0A30293B946C4F8E1
:102C08001C7120463146019A01F064FE029BBB42CA
:102C180028DDD4F80011DFF8B4B309E00B46D3453A
:102C280001F10101C4F80011E55484F8045119D0E8
:102C3800FF291BF8015FF1D1D4F8083184F8FF901F
:102C4800D4F80C2120469847D4F820310133C4F831
:102C5800203100230121D345C4F80011E55484F83C
:102C68000451E5D101374745C9D103E4D04FD0F825
:102C7800001107F11A0A4FF000090AE00B4601316A
:102C88005745C4F8001104F8038084F8048100F063
:102C98000786FF2917F8018FF0D1D4F8083184F896
:102CA800FF90D4F80C2120469847D4F820310133FE
:102CB800C4F8203101210023E2E716F0040641F0B0
:102CC800B3819768D2F80490002F3FF4D3ABD0F8C3
:102CD8000011B0460AE00B4601310136B742C4F88C
:102CE8000011E55484F804513FF4C4ABFF2919F8E6
:102CF8000650F0D1D4F8083184F8FF80D4F80C21BC
:102D080020469847D4F820310133C4F820310121F6
:102D18000023E2E7A74F5268314601F0DBFD07F1D7
:102D2800080AD4F800114FF000090AE00B460131F7
:102D38005745C4F8001104F8038084F8048100F0B2
:102D4800EA86FF2917F8018FF0D1D4F8083184F802
:102D5800FF90D4F80C2120469847D4F8203101334D
:102D6800C4F8203101210023E2E7111DFDF720FD01
:102D7800002801F0188003782F2B01F00780D4F881
:102D880010512B68C4F8103102463146204601F034
:102D9800A1FDC4F81051FFF76DBB0023D0F81481D2
:102DA800C0F814315768720705D53B781BB9BA6863
:102DB800062A01F0C2833A462046314601F08AFDD0
:102DC80094F804313C2B01F03483D4F80031FF2B04
:102DD80001F02F82591C3C22C4F80011E25484F8F7
:102DE80004213146AA68204601F074FD94F80431A4
:102DF8003E2B01F01083D4F80031FF2B01F006823E
:102E0800591C3E22C4F80011E25484F80421C4F885
:102E18001481FFF72FBB0123C0F81831FFF72ABB35
:102E2800D2F8088098F80030372B00F06287012329
:102E3800C4F81831FFF71EBB576895683B78312BEB
:102E480001F00880332B01F04B803A46314602F0FE
:102E5800A5FB204631462A4602F0DAFBFFF70ABBFB
:102E68003146526802F09AFBFFF704BB5768002FFF
:102E780040F0D986504DD0F8001105F1040809E05A
:102E88000B4601314545C4F80011E65484F8046145
:102E98003FF4F0AAFF2915F8016FF1D1D4F80831F1
:102EA80084F8FF70D4F80C2120469847D4F82031D4
:102EB8000133C4F8203101210023E3E73F4FD0F864
:102EC800001107F10A0A4FF000090AE00B46013128
:102ED8005745C4F8001104F8038084F8048100F011
:102EE800ED85FF2917F8018FF0D1D4F8083184F85F
:102EF800FF90D4F80C2120469847D4F820310133AC
:102F0800C4F8203101210023E2E752682C4906A8C1
:102F180007F004FD06A807F027FD00283FF4AAAA39
:102F28000DF11705D4F800112F184FF0000809E02B
:102F38000B460131BD42C4F80011E65484F804611F
:102F48003FF498AAFF2915F8016FF1D1D4F8083198
:102F580084F8FF80D4F80C2120469847D4F8203113
:102F68000133C4F8203101210023E3E7D0F8001130
:102F78001579FF2901F0B3804B1CC4F80031655462
:102F880084F80451FFF776BA3146526801F0A2FC82
:102F980020463146AA6801F09DFCFFF76BBA094F3D
:102FA800D0F8001107F10E0A4FF000091BE000BF2E
:102FB800EFEC000803EE000893ED000883ED00082D
:102FC800B0EB000873ED000825ED000823ED0008BC
:102FD8000B4601315745C4F8001104F8038084F802
:102FE800048100F06485FF2917F8018FF0D1D4F827
:102FF800083184F8FF90D4F80C2120469847D4F87B
:1030080020310133C4F8203101210023E2E752685E
:103018001178272940F0B8855268177C5FB1062FD0
:1030280041F27C81072F06D1AA68117819B99168F5
:10303800012901F0B683D4F80011FF2901F0548169
:103048004A1C2823C4F80021635484F804316A68B0
:103058002046314601F03EFCD4F80031FF2B01F048
:103068002081591C2922C4F80011E25484F8042153
:103078002B783C2B01F00A82082F01F0E8812046CA
:103088003146AA6801F026FCFFF7F4B90123C0F81D
:103098001831FFF7EFB993681A78392A7FF4C7AE69
:1030A8009F683A783A2A7FF4C2AED5F804A0BB49A3
:1030B800DAF80420D3F804801068D7F80490BD68C3
:1030C80003F090FC002801F096822046B449FFF7EF
:1030D80029F9D8F8043043B120463146424602F077
:1030E80097FA20462021FDF745FA4A462046314600
:1030F80001F0F0FB002D3FF4BDA9204631462A46D9
:1031080002F086FAFFF7B6B9526812B1314601F0FB
:10311800E1FBAB68002B3FF4ADA9D4F80071FD2F9B
:1031280000F2FD86DFF88C824FF0000A08F1020BEE
:10313800394609E00B460131D845C4F80011E75477
:1031480084F8047100F00185FF2918F8017FF1D196
:10315800D4F8083184F8FFA0D4F80C212046984709
:10316800D4F820310133C4F8203101210023E3E7EA
:10317800B2F90A30002B40F02D866A6889495368F5
:103188008B4200F0FF853146204601F0A3FBD4F8BE
:103198000031FF2B01F0F880591C2022C4F80011DF
:1031A800E25484F80421B5F90830002B00F0EF84CC
:1031B8007D4D4FF00008AF1D09E00B460131BD42BF
:1031C800C4F80011E65484F804613FF453A9FF29B8
:1031D80015F8016FF1D1D4F8083184F8FF80D4F8DC
:1031E8000C2120469847D4F820310133C4F8203107
:1031F80001210023E3E716ABD0F8142143F8402D52
:10320800C0F81431AA68D0F8103109930027314664
:103218000795089701F05EFB089B23B931462A46BB
:10322800204601F063FB069BC4F81431FFF722B96E
:10323800D0F814B1D0F81031CDF808B016A9002292
:1032480041F840BD0993029B0191C0F814110795FC
:103258000892002B01F027835B681B78193BDBB2CF
:10326800022B01F22083AB464FF00108029F039620
:103278008A460D4605E07B681B78193BDBB2022BBA
:103288001DD84FEA081C0DF15809BB68E144A9F1A3
:1032980040068BB9B8F1030F00F2DE8797E80F00FC
:1032A80086E80F0049F8405C01210AEB0C05C4F8D8
:1032B800145108F10108B9603F68002FDBD1039E63
:1032C800DBF808202046314601F004FB089B029AEF
:1032D800C4F814215D46002B7FF4CCA8B8F1010F87
:1032E80001F03D81019B03EB081757F80C2C08F1FE
:1032F800FF382046314601F0F9FAB8F1010FA7F17D
:103308001007F2D1D4F81431204631462A1D01F0B5
:10331800C5FEFFF7AFB8B30600F14A8553681BB185
:1033280016F0400300F09D8726F0600620463146DF
:1033380005F10802D4F8143101F080FFFFF79AB8BC
:103348001A4ED0F8001106F10E094FF0000809E0F6
:103358000B4601314E45C4F80011E75484F8047156
:1033680000F0F882FF2916F8017FF1D1D4F808316E
:1033780084F8FF80D4F80C2120469847D4F82031EF
:103388000133C4F8203101210023E3E7084FD0F8C6
:10339800001107F1160A4FF0000918E090EB000839
:1033A80050ED0008A4E2000813ED0008F3ED000852
:1033B800F3EC000823ED00080B4601315745C4F82B
:1033C800001104F8038084F8048100F0BC82FF290E
:1033D80017F8018FF0D1D4F8083184F8FF90D4F8A9
:1033E8000C2120469847D4F820310133C4F8203105
:1033F80001210023E2E7D04FD0F8001107F11C0AA1
:103408004FF000090AE00B4601315745C4F8001196
:1034180004F8038084F8048100F06383FF2917F817
:10342800018FF0D1D4F8083184F8FF90D4F80C213A
:1034380020469847D4F820310133C4F820310121BF
:103448000023E2E7BD4FD0F8001107F1080A4FF05A
:1034580000090AE00B4601315745C4F8001104F889
:10346800038084F8048100F0B282FF2917F8018FE5
:10347800F0D1D4F8083184F8FF90D4F80C21204614
:103488009847D4F820310133C4F8203101210023B2
:10349800E2E7AB4FD0F8001107F11D0A4FF0000921
:1034A8000AE00B4601315745C4F8001104F80380BF
:1034B80084F8048100F04283FF2917F8018FF0D1C6
:1034C800D4F8083184F8FF90D4F80C2120469847A6
:1034D800D4F820310133C4F8203101210023E2E778
:1034E800984FD0F8001107F1090A4FF000090AE0D7
:1034F8000B4601315745C4F8001104F8038084F8DD
:10350800048100F0D481FF2917F8018FF0D1D4F895
:10351800083184F8FF90D4F80C2120469847D4F855
:1035280020310133C4F8203101210023E2E716F0ED
:103538000406536840F04D835F68D3F80090002F6D
:103548003EF498AFD0F80011B0460AE00B460131BE
:103558000136B742C4F80011E55484F804513EF42A
:1035680089AFFF2919F80650F0D1D4F8083184F84A
:10357800FF80D4F80C2120469847D4F82031013335
:10358800C4F8203101210023E2E750680378052BB5
:1035980000F00D87232B00F0A7832A789A4200F0C9
:1035A800A383242B7EF44AAF16ABD4F814114268D7
:1035B80043F8401D0020D4F810110795C4F81431C1
:1035C80008900991002A7EF447AFFEF744BF3146C0
:1035D800526801F07FF9FEF74DBF57685A4DD7F88A
:1035E8000890D0F8001105F1080A4FF0000809E02A
:1035F8000B4601315545C4F80011E65484F80461BE
:1036080000F06381FF2915F8016FF1D1D4F8083172
:1036180084F8FF80D4F80C2120469847D4F820314C
:103628000133C4F8203101210023E3E7454FD0F8E6
:10363800001107F1090A4FF000090AE00B460131B1
:103648005745C4F8001104F8038084F8048100F099
:103658003581FF2917F8018FF0D1D4F8083184F8A3
:10366800FF90D4F80C2120469847D4F82031013334
:10367800C4F8203101210023E2E75268AF6812B193
:10368800314601F027F9D4F80031FF2B00F0868489
:103698005A1C7B25C4F800213146E5543A46204699
:1036A80084F8045101F016F9D4F80011FF2900F04C
:1036B80063844A1C7D23C4F80021635484F80431D0
:1036C800FEF7D8BE0123C0F81831FEF7D3BE7F68D5
:1036D800002F00F09B86B8F1040F7FF493A9012313
:1036E800C4F81831FEF7C6BED4F80011FF2900F05F
:1036F80012874A1C2E23C4F80021635484F804312D
:10370800D5F8088098F80030452B00F0C38420468F
:103718003146424601F0DEF8FEF7ACBE204631469F
:103728006A6801F0D7F8FEF7A5BE204631466A68F8
:1037380001F0D0F8FEF79EBEC3ED0008E3ED0008E7
:10374800A3ED000833ED000827ED0008BE4FAA6876
:103758003146204601F0BEF807F1050AD4F80011F9
:103768004FF0000909E00B4601315745C4F8001134
:1037780004F8038084F8048113D0FF2917F8018F17
:10378800F1D1D4F8083184F8FF90D4F80C21204600
:103798009847D4F820310133C4F82031012100239F
:1037A800E3E7204631466A6801F094F8FEF762BE06
:1037B800204631466A6801F08DF8FEF75BBE204668
:1037C80031466A6801F086F8FEF754BE2046314655
:1037D8006A6801F07FF8FEF74DBE204631466A68F8
:1037E80001F078F8FEF746BE204631466A6801F0D7
:1037F80071F8FEF73FBE954F6A683146204601F0E2
:1038080069F807F1040AD4F800114FF0000909E03B
:103818000B4601315745C4F8001104F8038084F8B9
:1038280004811AD0FF2917F8018FF1D1D4F8083193
:1038380084F8FF90D4F80C2120469847D4F820311A
:103848000133C4F8203101210023E3E72046314643
:103858006A6801F03FF8FEF70DBE20463146AA68B7
:1038680001F038F8FEF706BE204631466A6801F0D6
:1038780031F8FEF7FFBD204631466A6801F02AF8A4
:10388800FEF7F8BD204631466A6801F023F8FEF7D6
:10389800F1BD204631466A6801F01CF8FEF7EABD22
:1038A800204631466A6801F015F8FEF7E3BD204668
:1038B80031462A1D01F0AEFDFEF7DCBD204631463B
:1038C800AA6801F007F8FEF7D5BD7D682B78613B43
:1038D800DBB2192B40F2A58205EB090313F8013C72
:1038E800202B0CBF09F1FF374F46002F3EF4C2AD25
:1038F800D4F800112F444FF0000809E00B460131BD
:10390800BD42C4F80011E65484F804613EF4B2AD37
:10391800FF2915F8016BF1D1D4F8083184F8FF803C
:10392800D4F80C2120469847D4F820310133C4F844
:10393800203101210023E3E7204631466A6800F080
:10394800C9FFFEF797BD204631466A6800F0C2FFFE
:10395800FEF790BD6A683E49013206A806F0DEFF10
:1039680006A807F001F820B30DF11705D4F80011E7
:103978002F184FF0000808E00B460131BD42C4F88B
:103988000011E65484F8046115D0FF2915F8016F79
:10399800F2D1D4F8083184F8FF80D4F80C212046FD
:1039A8009847D4F820310133C4F82031012100238D
:1039B800E4E7D4F80011FF2900F003834A1C7D23B3
:1039C800C4F80021635484F80431FEF753BD31462E
:1039D800204E6A68204600F07DFF06F10209D4F8FF
:1039E80000114FF0000808E00B4601314E45C4F8BD
:1039F8000011E75484F8047113D0FF2916F8017FE9
:103A0800F2D1D4F8083184F8FF80D4F80C2120468C
:103A18009847D4F820310133C4F82031012100231C
:103A2800E4E7AA680A49013206A806F077FF06A863
:103A380006F09AFF68B30DF11705D4F800112F1896
:103A48004FF0000811E000BFBBEC0008F7EB0008DE
:103A5800B0EB0008EFED00080B460131BD42C4F899
:103A68000011E65484F8046115D0FF2915F8016F98
:103A7800F2D1D4F8083184F8FF80D4F80C2120461C
:103A88009847D4F820310133C4F8203101210023AC
:103A9800E4E7D4F80011FF2900F032834A1C7D23A3
:103AA800C4F80021635484F80431FEF7E3BC2046CF
:103AB80031466A6800F00EFFFEF7DCBC31466A68E2
:103AC800204600F007FFD4F80011FF2900F08A8291
:103AD8004A1C2923C4F80021635484F80431FEF7F2
:103AE800C9BC204631466A6800F0F4FEFEF7C2BC45
:103AF8003146AA68204600F0EDFED4F80011FF29EF
:103B080000F00F834A1C5D23C4F80021635484F835
:103B18000431FEF7AFBC3146AA68204600F0DAFE51
:103B2800D4F80011FF2900F06E824A1C5D23C4F806
:103B38000021635484F80431FEF79CBC20463146CA
:103B48006A6800F0C7FEFEF795BCAA68D4F8205151
:103B58000F462046314600F0BDFED4F820319D4284
:103B68007EF488ACD4F80031BB427EF483AC023FCB
:103B7800C4F80071FEF77EBC6D680195B8F1000FBE
:103B88007FF436A8FEF776BC0027FFF754BAAB4D92
:103B98009846AF1D09E00B460131BD42C4F800113B
:103BA800E65484F804613EF465ACFF2915F8016F0A
:103BB800F1D1D4F8083184F8FF80D4F80C212046DC
:103BC8009847D4F820310133C4F82031012100236B
:103BD800E3E7DF68D3F80890002F3EF44BAC0025EC
:103BE800D0F80011A8460AE00B4601310135AF4272
:103BF800C4F80011E65484F804613EF43BACFF2994
:103C080019F80560F0D1D4F8083184F8FF80D4F8A9
:103C18000C2120469847D4F820310133C4F82031CC
:103C280001210023E2E7864DD0F8001105F10609CD
:103C38004FF0000808E00B4601314D45C4F800116B
:103C4800E65484F8046113D0FF2915F8016FF2D106
:103C5800D4F8083184F8FF80D4F80C21204698471E
:103C6800D4F820310133C4F8203101210023E4E7DE
:103C78003A4606A8734906F051FE06A806F074FEF7
:103C880020B30DF11705D4F800112F184FF00008D4
:103C980008E00B460131BD42C4F80011E65484F82F
:103CA800046115D0FF2915F8016FF2D1D4F8083155
:103CB80084F8FF80D4F80C2120469847D4F82031A6
:103CC8000133C4F8203101210023E4E7D4F80011BE
:103CD800FF2900F047844A1C7D23C4F8002163545F
:103CE80084F80431FEF7C6BB0546D4F81421FEF764
:103CF800A7BB5268536819684878632800F0E283C4
:103D08001178312900F0508453684F49186802F03F
:103D180069FED8F8042018B91378032B00F05D84E5
:103D28002046314601F074FCD5F804804749D8F89C
:103D380004301F68384602F055FE002800F024843D
:103D48003846414902F04EFE002840F03F84AB68F7
:103D580031469A68204601F05BFC6B681A78312A74
:103D68007EF488AB5B689A68012A7EF483AB5B6853
:103D78001B783E2B7EF47EAB20462921FCF7FAFB0C
:103D8800FEF778BBD4F80011FFF70DBAD4F81C3150
:103D980002E002782F2A06D1002B40F37C85806848
:103DA800013B0028F5D10123C4F81831FEF762BBA6
:103DB80026F0600608323146D4F8143101F03EFA94
:103DC8006A68002A3EF456AB2046314600F082FD70
:103DD800FEF750BB1E4FD0F8001107F1050A4FF04F
:103DE80000090AE00B4601315745C4F8001104F8F0
:103DF800038084F804813FF4C0A9FF2917F8018FD4
:103E0800F0D1D4F8083184F8FF90D4F80C2120467A
:103E18009847D4F820310133C4F820310121002318
:103E2800E2E7FF2900F023844A1C2023C4F800217C
:103E3800635484F804317D684EE500BF1BED00082B
:103E48009BED0008B0EB000884EB000848ED000883
:103E58000BED00087B68C549D3F80080404602F0A6
:103E6800C1FD2B7810B9032B00F01384372B00F019
:103E78008C843A462046314601F090FBB8F1000F99
:103E88003EF4E7AF4046BA4902F0ACFD002800F026
:103E98003E824046B74902F0A5FD074600287EF459
:103EA800D8AFD4F80031FF2B00F02384581C282702
:103EB800C4F800013146E7542A46204684F80471C4
:103EC80000F008FDD4F80011FF2900F0018429232F
:103ED8004A1CC4F80021635484F80431FEF7CABAB6
:103EE800D0F80011FF2900F0B1834A1C2823C4F838
:103EF8000021204663543A1D314684F8043101F00C
:103F080089FAD4F80011FF2900F08F834A1C29236D
:103F1800C4F80021635484F80431FEF79ABF4FF0C7
:103F2800000804F807803946D4F80831D4F80C2181
:103F380020469847D4F82031C4F800810133474619
:103F4800C4F82031FFF7EEB8204631466A6800F021
:103F5800C1FCFEF78FBA0027D0F80831D0F80C2141
:103F680080F8FF709847D4F8203101333946C4F8F7
:103F780020310122FEF724BD0025D4F80831D4F8F9
:103F88000C2184F8FF5020469847D4F8203101339B
:103F98002946C4F820310122FFF78CBB00251946B9
:103FA800D4F80C21D4F8083184F8FF5020469847FB
:103FB800D4F820315A1CC4F820212B460122FFF7DF
:103FC80068BB0025D4F80831D4F80C2184F8FF50D8
:103FD80020469847D4F8203101332946C4F82031C7
:103FE8000122ECE40025D4F80831D4F80C2184F837
:103FF800FF5020469847D4F8203101332946C4F8A9
:104008002031012265E50025D4F80831D4F80C21C7
:1040180084F8FF5020469847D4F8203101332946C8
:10402800C4F82031012281E5566897683744BE42BA
:10403800BEF420AA4FF000080DE0D4F80011FF29C3
:1040480018D04B1CC4F80031655484F8045101366B
:10405800B7427EF60FAABB1B032B3578EDDD5F2D2B
:10406800EBD172785F2AE8D1B378552B00F05283F0
:104078001546E2E7D4F8083184F8FF80D4F80C211B
:1040880020469847D4F820310133C4F82031002164
:104098000123D7E7384DD4F8001105F10D0A4FF088
:1040A800000908E00B4601315545C4F80011E754F2
:1040B80084F8047146D0FF2915F8017FF2D1D4F8AD
:1040C800083184F8FF90D4F80C2120469847D4F89A
:1040D80020310133C4F8203101210023E4E7002610
:1040E800D0F8083180F8FF60D0F80C219847D4F850
:1040F80020310133C4F8203131460123FEF73DBF9A
:104108000025D4F80831D4F80C2184F8FF50204653
:104118009847D4F8203101332946C4F820310122C8
:10412800BDE40025D4F80831D4F80C2184F8FF50F8
:1041380020469847D4F8203101332946C4F8203165
:104148000122E0E4D8F808200C49013206A806F05C
:10415800E5FB06A806F008FC78B30DF11705D4F8BE
:10416800001105EB000A4FF0000912E040ED0008CD
:1041780044ED00082CF000089FEB0008B0EB0008A5
:104188000B4601315545C4F80011E75484F8047111
:1041980015D0FF2915F8017FF2D1D4F8083184F839
:1041A800FF90D4F80C2120469847D4F820310133E9
:1041B800C4F8203101210023E4E7D4F80011BD4DF3
:1041C8004FF0000905F1030A08E00B460131554597
:1041D800C4F80011E75484F8047113D0FF2915F8C6
:1041E800017FF2D1D4F8083184F8FF90D4F80C217B
:1041F80020469847D4F820310133C4F820310121F2
:104208000023E4E7D8F80480FFF781BA00251946AF
:10421800D4F80C21D4F8083184F8FF502046984788
:10422800D4F820315A1CC4F820212B460121FEF76E
:10423800E8BD00271946D4F80C21D4F8083184F8D1
:10424800FF7020469847D4F820315A1CC4F8202122
:104258003B460121FEF7BFBD0123C4F81831FEF724
:1042680009B916AAD4F8141142F8401D26F06006C0
:10427800C4F814216A68D4F81071089331462046AE
:104288000795099700F026FB089B069AC4F81421A5
:10429800002B7EF4EFA820462021FCF76BF9FFF7EE
:1042A80045B80022194684F8FF20D4F80831D4F81C
:1042B8000C21204698472923237084F804312A7852
:1042C800D4F82031012101333C2AC4F82031C4F844
:1042D80000117EF4D1AE2D234A1CC4F8002163548A
:1042E80084F80431FEF7C8BE4FF00008D4F808314E
:1042F800D4F80C2184F8FF8020469847D4F8203160
:1043080001334146C4F820310122FEF79ABE204607
:1043180031462A4600F0DEFAFEF7ACB8D5F8088038
:1043280098F80020002A7EF486AE3C2B00F0968296
:10433800314642462046023F00F0CCFA042F3EF6B2
:1043480099A8DFE807F01B150F09030020465A4912
:10435800FDF7E8FFFEF78EB820465849FDF7E2FF63
:10436800FEF788B820465649FDF7DCFFFEF782B80D
:1043780020466C21FCF7FEF8FEF77CB82046752134
:10438800FCF7F8F8FEF776B800261946D4F80C21A1
:10439800D4F8083184F8FF6020469847D4F82031D3
:1043A8005A1CC4F8202133460121FEF7F6BE011D30
:1043B8002046FCF7FDF980B103782F2B7FF4EAA89B
:1043C800D4F81C3105E08068013B30B102782F2A0F
:1043D80003D1002BF7DC00F057820123C4F8183111
:1043E800FEF748B8D4F80011FF2900F0BF814B1C34
:1043F800C4F80031204604F8019055F80C2C84F8D4
:104408000491414600F072FAFEF770BB0123C4F82C
:104418001831FEF72FB8D4F80011FF2900F0E18118
:1044280020224B1CC4F80031625484F80421FEF7A2
:10443800E4BCD4F80011FF2900F0F08120224B1CC5
:10444800C4F80031625484F80421FEF7C0BCD4F8E3
:104458000011FF2900F0F2814A1C5B23C4F80021F7
:10446800635484F804313146AA68204600F032FAD1
:10447800D4F80011FF2900F0A4815D234A1CC4F878
:104488000021635484F80431FDF7F4BFFF297FF459
:1044980022AF4FF00008D4F8083184F8FF80D4F830
:1044A8000C2120469847D4F8203101334146C4F8FE
:1044B800203110E7B3EB000860ED00085CED000860
:1044C80058ED00080978A1F16300C0B2012804D9A9
:1044D8007239C9B201293FF613AC2046314601F0C2
:1044E8005DF820463C21FCF745F8AB6820465A6841
:1044F800314600F0EFF92046C249FDF713FFAB68DB
:10450800314620469A6800F0E5F920462921FCF753
:1045180031F8FDF7AFBF0027D4F80831D4F80C21E3
:1045280084F8FF7020469847D4F820310133394683
:10453800C4F820310122FFF7DDB87868B24906F0E7
:1045480043FA00287EF437AC31462046AA6800F0CA
:10455800C1F92046AD49FDF7E5FEFEF758BC029BC0
:10456800FEF7D2BE0025D4F80831D4F80C2184F81F
:10457800FF5020469847D4F8203101332946C4F823
:1045880020310122FFF7A8BB20465B21FBF7F2FF91
:10459800AB68314620469A6800F09CF920465D21B8
:1045A800FBF7E8FFFFF7D9BB996801297FF4ACABAB
:1045B8005B681B783E2B7FF4A7AB20462821FBF7CE
:1045C800D9FF6A68D5F80880FFF79EBB42462046A7
:1045D800314600F0E3FFFFF7BABB93681B78292B3D
:1045E8001CBF0123C4F8183152682046314601F037
:1045F8000FF8FFF799BB42462046314601F008F80C
:1046080020463146524600F0C9FF4A462046314608
:1046180000F0FEFF20467E49FDF784FE2046314625
:104628002A4600F0F5FFFDF725BF0027D4F808312A
:10463800D4F80C2184F8FF7020469847D4F820312C
:1046480001333946C4F82031012260E44FF00008F4
:10465800D0F80831D0F80C2180F8FF809847D4F8BA
:10466800203101334146C4F8203101223EE40025BF
:10467800D4F80831D4F80C2184F8FF502046984724
:10468800D4F8203101332946C4F820310122FFF73C
:10469800CCBB6B681A78012A7FF4EBABAA68127856
:1046A800292A08BF1D46FFF7E4BB16AB059743F858
:1046B80048ADC4F81031FEF7FEB9314620466A68A5
:1046C80000F0A6FF20465349FDF72CFEFDF7D2BEA9
:1046D8000025D4F8083184F8FF50D4F80C2120467E
:1046E8009847D4F8203101332946C4F82031FFF720
:1046F800EEBB84F8FF001946D4F80C21D4F8083131
:1047080020469847D4F820315A1CC4F820213B464B
:10471800FFF7CCBBF31C9F427FF6AAAC002104E054
:104728001546BB4205EB011118D0994613F8015BF9
:10473800A5F13002D0B2A5F1410C09285FFA8CFC32
:10474800EED9A5F16102BCF1050FD2B201D8373D0F
:10475800E7E7052A00F28880573DE2E75F256CE429
:104768004C460123C4F81831FDF784BED4F808314B
:1047780084F8FF60D4F80C2120469847D4F82031FB
:1047880001333146C4F8203131E66A6820463146A3
:1047980000F03EFF204631463A4600F0FFFEFDF7A6
:1047A80069BE3B2B7EF447AC53681B78302B00F076
:1047B8008980312B7EF43FAC1749FDF7B3FDFDF737
:1047C80059BE0025D4F8083184F8FF50D4F80C21DC
:1047D80020469847D4F8203101332946C4F82031BF
:1047E8004BE60025D4F8083184F8FF50D4F80C21A2
:1047F80020469847D4F8203101332946C4F820319F
:104808000EE600BF10EE0008B8EB0008C0EB000889
:104818004CED000890ED00086CED00080027D4F876
:10482800083184F8FF70D4F80C2120469847D4F852
:10483800203101333946C4F82031FFE50027D4F888
:10484800083184F8FF70D4F80C2120469847D4F832
:10485800203101333946C4F82031FDE52D21FBF71D
:1048680089FED5F8088063E54F457FF677AF5F2D61
:104878007FF474AFFF293FF6E0ABC9B220464E463D
:10488800FBF778FEFFF7E3BB406800283FF4A5ADCF
:104898000378FEF77FBE7FF486AA406800287EF47E
:1048A8006EAAFFF780BA31462046AA6800F012F8CF
:1048B800089B0299C4F81411002B7DF4DBAD0B465C
:1048C800FEF722BD0249FDF72DFDFDF7D3BD00BF60
:1048D80064ED00082AB1D0F818310BB9FDF756BDC0
:1048E80070470122C0F81821704700BF1378033BB6
:1048F8002DE9F0471546044689462A2B00F2D38154
:10490800DFE813F05200D101D101D101D101D10169
:10491800D101D101D101D101D101D101D101D101FF
:10492800D101D101D101D101D101D101D101D101EF
:104938005D008300A9005D008300A900CE00E600A9
:104948001D013201440147014A017001D101D10121
:10495800D101D1019501D1012B00D94ED0F80031F8
:1049680006F10A0A4FF0000809E01A4601335645D5
:10497800C4F80031A75484F8047100F0B981FF2B02
:1049880016F8017FF1D11946D4F80C21D4F8083172
:1049980084F8FF8020469847D4F820310133C4F8C2
:1049A800203100220123E2E76A68002A00F0D7805C
:1049B800D4F81831002B00F0BA81BDE8F087C14D5A
:1049C800D0F8001105F109074FF0000809E00B467F
:1049D8000131BD42C4F80011E65484F8046100F0C6
:1049E8008381FF2915F8016FF1D1D4F8083184F8D3
:1049F800FF80D4F80C2120469847D4F820310133A1
:104A0800C4F8203101210023E3E7AF4DD0F80011AD
:104A180005F109074FF0000809E00B460131BD42D6
:104A2800C4F80011E65484F8046100F05F81FF299E
:104A380015F8016FF1D1D4F8083184F8FF80D4F863
:104A48000C2120469847D4F820310133C4F820318E
:104A580001210023E3E79D4DD0F80011AF1D4FF071
:104A6800000809E00B460131BD42C4F80011E654C4
:104A780084F8046100F02181FF2915F8016FF1D154
:104A8800D4F8083184F8FF80D4F80C2120469847E0
:104A9800D4F820310133C4F8203101210023E3E7A1
:104AA800D0F80031FF2B00F05981591C2022C4F89E
:104AB8000011E25484F80421FF2900F03E814A1CC9
:104AC8002623C4F80021635484F80431BDE8F08734
:104AD800D0F80031FF2B00F06281591C2022C4F865
:104AE8000011E25484F80421794D4FF00008AF1CFE
:104AF80009E00B46BD4201F10101C4F80011E6547A
:104B080084F8046119D0FF2915F8016FF1D1D4F8A0
:104B1800083184F8FF80D4F80C2120469847D4F84F
:104B280020310133C4F8203100230121BD42C4F8EB
:104B38000011E65484F80461E5D1BDE8F087D0F8A7
:104B48000011FF2900F01B814A1C2023C4F8002112
:104B5800635484F80431AA68002A7FF429AF01233A
:104B6800C4F81831BDE8F08711F004097FF425AFC7
:104B7800D0F80011FF2900F04D814A1C2A23C4F8FF
:104B88000021635484F80431BDE8F087D0F800119F
:104B980092E7D0F80011A7E74E4DD0F8001105F1C3
:104BA80008074FF0000809E00B460131BD42C4F880
:104BB8000011E65484F8046100F09480FF2915F888
:104BC800016FF1D1D4F8083184F8FF80D4F80C21B2
:104BD80020469847D4F820310133C4F82031012108
:104BE8000023E3E73C4DD0F8001105F10A074FF028
:104BF800000808E00B460131BD42C4F80011E65434
:104C080084F804616CD0FF2915F8016FF2D1D4F84B
:104C1800083184F8FF80D4F80C2120469847D4F84E
:104C280020310133C4F8203101210023E4E790F852
:104C38000431282B0BD0D0F80011FF2900F0DA80BE
:104C48004A1C2023C4F80021635484F804316A689C
:104C5800002A00F0C780D4F81831002B62D01F4D0D
:104C6800D4F80011EF1C4FF0000808E00B460131A2
:104C7800BD42C4F80011E65484F8046149D0FF2904
:104C880015F8016FF2D1D4F8083184F8FF80D4F810
:104C98000C2120469847D4F820310133C4F820313C
:104CA80001210023E4E7D0F81831002B7FF485AE0A
:104CB8002A46BDE8F047FDF769BBBDE8F08700BFAD
:104CC80053EE000813EE00081FEE00082BEE000854
:104CD80033EE000837EE000843EE00084FEE0008F8
:104CE800BDE8F087BDE8F087BDE8F087BDE8F0874C
:104CF8006A68002A7AD0D4F8181161B1FF2B5FD006
:104D0800591C2922C4F80011E25484F80421BDE892
:104D1800F087BDE8F08749462046FDF737FBD4F811
:104D28000031EBE749462046FDF730FB97E7204680
:104D38004946BDE8F047FDF729BB0025D4F80831FE
:104D4800D4F80C2184F8FF5020469847D4F8203135
:104D580001332946C4F820310122B1E6002519465D
:104D6800D0F80C21D0F8083180F8FF509847D4F8D3
:104D780020315A1CC4F820212B46012196E6002632
:104D8800D0F80831D0F80C2180F8FF609847D4F8A3
:104D9800203101333146C4F820310122D5E60025FF
:104DA8001946D0F80C21D0F8083180F8FF50984700
:104DB800D4F820315A1CC4F820212B4601218DE655
:104DC80000251946D4F80C21D4F8083184F8FF508E
:104DD80020469847D4F820315A1CC4F820212B4685
:104DE80001218EE70123C4F8183138E70122C4F8FD
:104DF800182183E70026D0F80831D0F80C2180F874
:104E0800FF609847D4F8203101333146C4F8203187
:104E1800012216E7D0F80831D0F80C2180F8FF906D
:104E28009847D4F8203101334946C4F8203101228B
:104E3800A4E600BF2DE9F04F144689B005460F4699
:104E48001E4642B3D0F818312BBB4FF0010802E0E0
:104E5800D5F81821FAB9A268D2B96268107826B9CB
:104E6800A0F11C03DBB2042B12D9E368C4F8088054
:104E78002928D5F81091C5F810310FD02A2818D054
:104E8800022821D028463946FFF730FDC5F8109191
:104E98002468002CDCD109B0BDE8F08F394608320F
:104EA8002368284600F0CAF9C5F8109109B0BDE892
:104EB800F08F394604322368284600F0EFF8C5F829
:104EC800109109B0BDE8F08F0026D5F81481C5F817
:104ED8001461526828463946FFF7FCFCC5F814816E
:104EE80017F0040823D1694ED5F8001106F1020B1A
:104EF80009E00B4601315E45C5F8001105F803A02D
:104F080085F804A11ED0FF2916F801AFF1D1D5F814
:104F1800083185F8FF80D5F80C2128469847D5F840
:104F280020310133C5F8203101210023E3E7D5F80A
:104F38000011FF291CD04A1C2E23C5F800216B54F0
:104F480085F8043163689C682378452B02D11FE0FB
:104F5800646823781C3BDBB2042BF9D93946224616
:104F68002846FFF7B7FCC5F8109109B0BDE8F08FE7
:104F7800D5F80831D5F80C2185F8FF602846984700
:104F8800D5F8203101333146C5F820310122D3E765
:104F98003F4ED5F8001106F10D0A4FF0000B09E05D
:104FA8000B4601315645C5F8001105F8038085F810
:104FB800048113D0FF2916F8018FF1D1D5F80831F3
:104FC80085F8FFB0D5F80C2128469847D5F8203148
:104FD8000133C5F8203101210023E3E7A2682D49F8
:104FE800013201A805F09AFC01A805F0BDFC30B318
:104FF8000DF10306D5F8001106EB000A4FF0000B7F
:1050080009E00B4601315645C5F8001105F8038043
:1050180085F8048115D0FF2916F8018FF1D1D5F84C
:10502800083185F8FFB0D5F80C2128469847D5F8FF
:1050380020310133C5F8203101210023E3E7D5F8F9
:105048000011154E4FF0000B06F1030A0AE00B465B
:1050580001315645C5F8001105F8038085F804812B
:105068003FF476AFFF2916F8018FF0D1D5F8083153
:1050780085F8FFB0D5F80C2128469847D5F8203197
:105088000133C5F8203101210023E2E79BEB00083A
:105098009FEB0008B0EB0008B3EB00082DE9F84FD0
:1050A800994605460F4690464BB1986880B31B68F1
:1050B800002BFAD14A4628463946FFF7BBFED5F8F9
:1050C8000031FF2B69D0591C2022C5F80011EA5481
:1050D80085F80421FF2900F095804B1C5B22C5F858
:1050E80000316A5485F80421D8F800202AB13946DD
:1050F8002846FFF7EFFBD5F80031FF2B70D0591C7D
:105108005D22C5F80011EA5485F80421BDE8F88F3E
:105118005B681B782A2B00F08680474ED5F8001173
:1051280006F1020A0AE00A46564501F10101C5F8EE
:10513800001105F802B085F804B11CD0FF2916F853
:1051480001BFF0D14FF00003D5F80C2185F8FF30EE
:10515800D5F808412846A047D5F820210132C5F8DE
:105168002021002201215645C5F8001105F802B09A
:1051780085F804B1E2D139464A4628460023FFF7AC
:1051880059FED5F80011FF2919D04B1C2922C5F862
:1051980000316A5485F8042193E700241946D5F8AC
:1051A8000C21D5F8083185F8FF4028469847D5F8EE
:1051B80020315A1CC5F820212346012184E7002408
:1051C800D5F8083185F8FF40D5F80C2128469847CE
:1051D800D5F820310133C5F8203121460123D5E720
:1051E80000241946D5F80C21D5F8083185F8FF4078
:1051F80028469847D5F820315A1CC5F8202123465F
:1052080001217DE70024D5F8083185F8FF40D5F85D
:105218000C2128469847D5F820310133C5F82031AC
:10522800214601235AE7034639464A462846FFF7EE
:1052380001FED5F800114DE78BED00082DE9F04788
:105248009A46074688469146002B3BD09B68002B20
:1052580038D15446012206E016F4606F7AD12468EA
:1052680084B3A36873BB6068694D0678193EF6B2CB
:10527800122EF4D802FA06F63540002DECD097F835
:105288000431202B6CD0D7F80031FF2B00F0AD8013
:10529800591C2022FF29C7F80011FA5487F8042165
:1052A80062D10024D7F8083187F8FF40D7F80C21DD
:1052B80038469847D7F820310133C7F820312146BE
:1052C800012352E00023D7F81451C7F8143141469E
:1052D80038465246FFF7AEFDD7F80011FF2962D0D5
:1052E8004B1C2822C7F800317A5487F80421D9F8D2
:1052F800002012B1D7F8181191B1FF2B18D05A1C01
:105308002924C7F800214146FC545246384687F8FC
:1053180004410123FFF78EFDC7F81451BDE8F0875B
:1053280038464146FDF732F8D7F80031FF2BE6D171
:1053380000241946D7F80C21D7F8083187F8FF4020
:1053480038469847D7F820315A1CC7F820212346F9
:105358000122D5E797F8043103F0FD02282A90D1FD
:10536800D7F80011FF299CD04B1C28220024C7F82D
:105378000031D7F814517A54234687F80421C7F826
:105388001441524638464146FFF754FDD7F80021EC
:10539800FF2A19D0511C2923FF29C7F80011BB5433
:1053A80087F804319CD10024D7F8083187F8FF40EA
:1053B800D7F80C2138469847D7F820310133C7F879
:1053C8002031214601238CE71146D7F80831D7F858
:1053D8000C2187F8FF4038469847D7F82031013329
:1053E8002246C7F820310121D5E700241946D7F80D
:1053F8000C21D7F8083187F8FF4038469847D7F886
:1054080020315A1CC7F820212346012141E700BF5B
:10541800073104002DE9F041154612681378042B72
:1054280082B004460E4606D0D0F81831002B3DD085
:1054380002B0BDE8F08102ABD0F8107143F8087DE6
:105448000022C0F81031D0F81481C0F814212B685C
:1054580001935A68002A6FD0D0F81831002B3FD03A
:1054680094F80431C4F810713C2B69D0D4F80021A9
:10547800FF2A4BD0531C3C21C4F80031A15484F8B6
:1054880004112A689268002A52D0D4F8185195B1AC
:10549800FF2B29D0591C3E22C4F80011E25484F88D
:1054A8000421C4F8148102B0BDE8F081FCF76EFF56
:1054B80002B0BDE8F08131462046FCF767FF94F85A
:1054C8000421D4F800313E2AE2D1FF2B44D01D46F6
:1054D80001332022C4F80031625584F80421D7E74B
:1054E800FCF754FF009FBBE700251946D4F80C21B0
:1054F800D4F8083184F8FF5020469847D4F8203172
:105508005A1CC4F820212B460121C4E70027114664
:10551800D4F80831D4F80C2184F8FF702046984755
:10552800D4F820310133C4F820313A460123A2E7E8
:105538000122C4F81821ABE70123C0F818318FE71E
:10554800D4F80011FF2917D04A1C2023C4F80021E1
:10555800635484F804318BE7194684F8FF50D4F873
:105568000831D4F80C2120469847D4F8203101336B
:10557800C4F820310123ACE70027D4F80831D4F867
:105588000C2184F8FF7020469847D4F82031013365
:105598003946C4F820310122D7E700BF2DE9F84386
:1055A8001578312D044608D0D0F818310BB1BDE874
:1055B800F883BDE8F843FCF7E9BE53689F68D3F861
:1055C8000490002FF3D00025D0F80011A84609E078
:1055D8000B4601310135AF42C4F80011E65484F896
:1055E800046113D0FF2919F80560F1D1D4F8083106
:1055F80084F8FF80D4F80C2120469847D4F820314D
:105608000133C4F8203101210023E3E7BDE8F88322
:10561800F8B51378012B15460F46044614D9302BDC
:1056280012D0062B10D0D0F80031FF2B34D0591CE3
:105638002822C4F80011E254D4F8183184F804215F
:10564800002633B166B1F8BDD4F818310126002B15
:10565800F8D139462A462046FCF798FE002EF2D1AA
:10566800D4F80011FF2907D04A1C2923C4F80021C7
:10567800635484F80431F8BDD4F80831D4F80C2107
:1056880084F8FF6020469847D4F82031013331462A
:10569800C4F820310122E8E700261946D4F80C2185
:1056A800D4F8083184F8FF609847D4F820315A1CA0
:1056B800C4F8202133460121BAE700BF2DE9F04F95
:1056C800D7B0044605785F2D00AF0E46904672D0DD
:1056D80020467D49082205F077F978B9237A2E2BE0
:1056E80005D05F2B03D0242B01D0814608E0637AD4
:1056F800442B00F0E180492B00F098804FF000091E
:10570800204605F031F942008300991889000831D4
:105718000A33ADEB010D23F00703EA4604EB000C56
:10572800ADEB030D4FF0110B0023B9F1010FC7F8D2
:1057380010A0C7F81CD0BA613C60FC607862C7F85A
:1057480004C0C7F808B07B613B62BB62FB623B6385
:1057580037D073D3B9F1030F70D8E27AB9F1020FD9
:1057680004F10B0514BF4FF043094FF042095F2ABB
:10577800FD6003D1227B5A2A00F09380284605F069
:10578800F3F8294602463846FAF770FD02464946BC
:1057980000233846FAF71EFDFC688146204605F0CE
:1057A800E3F82318FB60255C85B1002007F5AE7788
:1057B800BD46BDE8F08F43785A2B89D14FF00109D7
:1057C8009EE75F2D41D09946002DEED1B9F1000F2B
:1057D80065D007F134044A4620461121C7F83451F0
:1057E80087F83851C7F84451C7F84851C7F850519D
:1057F800C7F85451C7F83C61C7F84081C7F84C5105
:10580800FCF7C4FDD7F83411D7F83C31D7F840215C
:10581800655420469847D7F84C01D0F1010038BFAD
:10582800002007F5AE77BD46BDE8F08FA37A5F2B61
:1058380014BF4FF000094FF0020961E73846FBF743
:1058480081FAFB6881461D78AEE76578621C5A2D9F
:10585800FA60B8D1494602343846FC60FBF760FE6E
:10586800BB6813F0010FFB6881461D7814D19BE7D4
:105878005B78A3F16102D2B2A3F13004192A384649
:105888004946E4B203D95F2B01D0092C11D8FAF7A5
:105898007DFDFB681D7881462E2DE9D084E74846BA
:1058A80084E70D3419463846FC60FBF739FE02469A
:1058B8006DE7FB681D7877E7A37A5F2B0CBF4FF085
:1058C80003094FF000091BE740EB00082DE9F04100
:1058D8000D4684B017461E4600282ED009B1002A6E
:1058E8002BD00024294900946A4601940294039419
:1058F800FFF7E4FE00283ED0039BDBB14FF0010820
:10590800009C44B3002D33D0204605F02DF83B68A9
:1059180098421AD2421C2146284600F0C9FF204668
:1059280004F0B8F92C460EB300232046336004B0C7
:10593800BDE8F081DDF80880E2E79EB16FF0020370
:105948000020336004B0BDE8F081284604F0A2F9D5
:10595800C7F80080E7E72EB1B8F1010F11D06FF05A
:1059680001033360002004B0BDE8F0812046DEE783
:10597800002FEDD1D7E7009804F08CF9002EEED176
:10598800F0E74FF0FF3320463360D0E78508000882
:1059980008B540B139B1FFF791FE002814BF0020C7
:1059A8006FF0010008BD6FF0020008BD03685A00DF
:1059B8004CBF43F0004323F000431844704700BF36
:1059C8002DE9F04F064683B0914621B30139019184
:1059D8008846002707EB080404EBD4746410E5003C
:1059E80006EB050B5846FFF7E1FF019B8246A342F1
:1059F80005F10800304419D0FFF7D8FFCA4500F177
:105A0800FF3004D9BC420BD004F1FF38E2E7484527
:105A180002D2671CDEE78B46584603B0BDE8F08F1C
:105A28004FF0000B584603B0BDE8F08FCA45E9D8DF
:105A3800F2E700BF012807D0022807D0044B00284E
:105A48000CBF18460020704702487047024870474C
:105A58006D610008756100087D61000830B5274B4D
:105A680083B004468D1E002B42D0284601A9AFF30F
:105A78000080034623B32A460199FFF7A1FF054694
:105A880018B3FFF793FF6B68A064012B12D0002BAB
:105A980005F1040028DBFFF789FF0023E064236594
:105AA8000368002B16DBFFF781FF002320611846EF
:105AB80003B030BD002323610523184603B030BD71
:105AC80023610923184603B030BD09232061184615
